{
  "contractName": "DailyReport",
  "abi": [
    {
      "anonymous": false,
      "inputs": [
        {
          "indexed": true,
          "internalType": "address",
          "name": "previousOwner",
          "type": "address"
        },
        {
          "indexed": true,
          "internalType": "address",
          "name": "newOwner",
          "type": "address"
        }
      ],
      "name": "OwnershipTransferred",
      "type": "event"
    },
    {
      "constant": true,
      "inputs": [],
      "name": "owner",
      "outputs": [
        {
          "internalType": "address",
          "name": "",
          "type": "address"
        }
      ],
      "payable": false,
      "stateMutability": "view",
      "type": "function"
    },
    {
      "constant": false,
      "inputs": [
        {
          "internalType": "address",
          "name": "newOwner",
          "type": "address"
        }
      ],
      "name": "transferOwnership",
      "outputs": [],
      "payable": false,
      "stateMutability": "nonpayable",
      "type": "function"
    },
    {
      "constant": false,
      "inputs": [
        {
          "internalType": "uint256",
          "name": "day",
          "type": "uint256"
        },
        {
          "internalType": "uint256",
          "name": "blocksThatDay",
          "type": "uint256"
        },
        {
          "internalType": "uint256",
          "name": "gasFeeInWeiThatDay",
          "type": "uint256"
        }
      ],
      "name": "storeDailyReport",
      "outputs": [
        {
          "internalType": "bool",
          "name": "success",
          "type": "bool"
        }
      ],
      "payable": false,
      "stateMutability": "nonpayable",
      "type": "function"
    },
    {
      "constant": true,
      "inputs": [
        {
          "internalType": "uint256",
          "name": "day",
          "type": "uint256"
        }
      ],
      "name": "getDailyReport",
      "outputs": [
        {
          "internalType": "uint256",
          "name": "",
          "type": "uint256"
        },
        {
          "internalType": "uint256",
          "name": "",
          "type": "uint256"
        }
      ],
      "payable": false,
      "stateMutability": "view",
      "type": "function"
    }
  ],
  "bytecode": "0x6080604052336000806101000a81548173ffffffffffffffffffffffffffffffffffffffff021916908373ffffffffffffffffffffffffffffffffffffffff16021790555061039e806100536000396000f3fe608060405234801561001057600080fd5b506004361061004c5760003560e01c80638da5cb5b14610051578063959a3db51461009b578063a636c890146100f5578063f2fde38b1461013e575b600080fd5b610059610182565b604051808273ffffffffffffffffffffffffffffffffffffffff1673ffffffffffffffffffffffffffffffffffffffff16815260200191505060405180910390f35b6100db600480360360608110156100b157600080fd5b810190808035906020019092919080359060200190929190803590602001909291905050506101a7565b604051808215151515815260200191505060405180910390f35b6101216004803603602081101561010b57600080fd5b81019080803590602001909291905050506101e4565b604051808381526020018281526020019250505060405180910390f35b6101806004803603602081101561015457600080fd5b81019080803573ffffffffffffffffffffffffffffffffffffffff169060200190929190505050610218565b005b6000809054906101000a900473ffffffffffffffffffffffffffffffffffffffff1681565b6000826001600086815260200190815260200160002081905550816002600086815260200190815260200160002081905550600190509392505050565b6000806001600084815260200190815260200160002054600260008581526020019081526020016000205491509150915091565b6000809054906101000a900473ffffffffffffffffffffffffffffffffffffffff1673ffffffffffffffffffffffffffffffffffffffff163373ffffffffffffffffffffffffffffffffffffffff161461027157600080fd5b600073ffffffffffffffffffffffffffffffffffffffff168173ffffffffffffffffffffffffffffffffffffffff1614156102ab57600080fd5b8073ffffffffffffffffffffffffffffffffffffffff166000809054906101000a900473ffffffffffffffffffffffffffffffffffffffff1673ffffffffffffffffffffffffffffffffffffffff167f8be0079c531659141344cd1fd0a4f28419497f9722a3daafe3b4186f6b6457e060405160405180910390a3806000806101000a81548173ffffffffffffffffffffffffffffffffffffffff021916908373ffffffffffffffffffffffffffffffffffffffff1602179055505056fea265627a7a72315820ed4e6fd6432f8e55efd75448c0b82c462c2a05a21eec17a3d1e73967589786de64736f6c63430005100032",
  "source": "// SPDX-License-Identifier: MIT\npragma solidity >=0.4.25 <0.7.0;\n\nimport \"./Ownable.sol\";\n\ncontract DailyReport is Ownable {\n    mapping(uint256 => uint256) blocksPerDay;\n    mapping(uint256 => uint256) gasFeeInWeiPerDay;\n\n    function storeDailyReport(\n        uint256 day,\n        uint256 blocksThatDay,\n        uint256 gasFeeInWeiThatDay\n    ) external returns (bool success) {\n        blocksPerDay[day] = blocksThatDay;\n        gasFeeInWeiPerDay[day] = gasFeeInWeiThatDay;\n        return true;\n    }\n\n    function getDailyReport(uint256 day)\n        external\n        view\n        returns (uint256, uint256)\n    {\n        return (blocksPerDay[day], gasFeeInWeiPerDay[day]);\n    }\n}\n",
  "sourcePath": "/Users/fabian/code/dailyreport/contract/contracts/DailyReport.sol",
  "compiler": {
    "name": "solc",
    "version": "0.5.16+commit.9c3226ce.Emscripten.clang"
  },
  "schemaVersion": "3.4.3",
  "updatedAt": "2021-12-26T07:18:55.162Z",
  "networkType": "ethereum",
  "devdoc": {
    "methods": {
      "transferOwnership(address)": {
        "details": "Allows the current owner to transfer control of the contract to a newOwner.",
        "params": {
          "newOwner": "The address to transfer ownership to."
        }
      }
    }
  },
  "userdoc": {
    "methods": {}
  }
}